:030000000209CB27
:0C09CB00787FE4F6D8FD75811602099CC7
:0A09D700C0F9A4B0999282F8809054
:10099C0075A0C075B0C0C292C291C290D2907F01B6
:1009AC007E0012090CC290D2917F027E0012090CBB
:0F09BC00C291D2927F037E0012090CC29280DD9D
:04090C008E088F09B9
:10091000780A7C007D007BFF7A0979D77E007F0A08
:100920001208D0E4F514D3E5149509E5086480F8BD
:100930007480985066740A2514F8E6F5B0900000AB
:10094000AF82AE83E4FCFD7BB87A88F9F8D3120855
:10095000F64003A380EAE4F515F516740A2516F8A7
:10096000E6F5A0E4F583F582AF82AE83E4FCFD7B7F
:10097000B87A88F9F8D31208F64003A380EAE5169E
:10098000640945157003850AA00516E51670020571
:0B09900015640A451570C40514808B27
:01099B002239
:10080000E709F608DFFA8046E709F208DFFA803EDA
:1008100088828C83E709F0A3DFFA8032E309F608C7
:10082000DFFA8078E309F208DFFA807088828C832F
:10083000E309F0A3DFFA806489828A83E0A3F608E3
:10084000DFFA805889828A83E0A3F208DFFA804CBD
:1008500080D280FA80C680D4806980F28033801094
:1008600080A680EA809A80A880DA80E280CA8033FD
:1008700089828A83ECFAE493A3C8C582C8CCC58375
:10088000CCF0A3C8C582C8CCC583CCDFE9DEE78045
:100890000D89828A83E493A3F608DFF9ECFAA9F0C4
:1008A000EDFB2289828A83ECFAE0A3C8C582C8CC1A
:1008B000C583CCF0A3C8C582C8CCC583CCDFEADE33
:1008C000E880DB89828A83E493A3F208DFF980CC95
:1008D00088F0EF60010E4E60C388F0ED2402B4048E
:1008E0000050B9F582EB2402B4040050AF23234535
:0608F00082239008507302
:1008F600EB9FF5F0EA9E42F0E99D42F0EC6480C879
:0609060064809845F02218
:00000001FF
